{
  "contractName": "BorrowingContract",
  "abi": [
    {
      "inputs": [
        {
          "internalType": "address",
          "name": "_borrower",
          "type": "address"
        },
        {
          "internalType": "uint256",
          "name": "_loanAmount",
          "type": "uint256"
        },
        {
          "internalType": "uint256",
          "name": "_ltv",
          "type": "uint256"
        },
        {
          "internalType": "uint256",
          "name": "_dueDate",
          "type": "uint256"
        },
        {
          "internalType": "address",
          "name": "_lendingContractAddress",
          "type": "address"
        },
        {
          "internalType": "string",
          "name": "_productName",
          "type": "string"
        },
        {
          "internalType": "uint256",
          "name": "_productValue",
          "type": "uint256"
        }
      ],
      "payable": false,
      "stateMutability": "nonpayable",
      "type": "constructor"
    },
    {
      "constant": true,
      "inputs": [],
      "name": "borrowerAddress",
      "outputs": [
        {
          "internalType": "address payable",
          "name": "",
          "type": "address"
        }
      ],
      "payable": false,
      "stateMutability": "view",
      "type": "function"
    },
    {
      "constant": true,
      "inputs": [],
      "name": "borrowingContractAddress",
      "outputs": [
        {
          "internalType": "address",
          "name": "",
          "type": "address"
        }
      ],
      "payable": false,
      "stateMutability": "view",
      "type": "function"
    },
    {
      "constant": true,
      "inputs": [],
      "name": "collateral",
      "outputs": [
        {
          "internalType": "string",
          "name": "name",
          "type": "string"
        },
        {
          "internalType": "uint256",
          "name": "value",
          "type": "uint256"
        },
        {
          "internalType": "address",
          "name": "owner",
          "type": "address"
        }
      ],
      "payable": false,
      "stateMutability": "view",
      "type": "function"
    },
    {
      "constant": true,
      "inputs": [],
      "name": "dueDate",
      "outputs": [
        {
          "internalType": "uint256",
          "name": "",
          "type": "uint256"
        }
      ],
      "payable": false,
      "stateMutability": "view",
      "type": "function"
    },
    {
      "constant": true,
      "inputs": [],
      "name": "interestRate",
      "outputs": [
        {
          "internalType": "uint256",
          "name": "",
          "type": "uint256"
        }
      ],
      "payable": false,
      "stateMutability": "view",
      "type": "function"
    },
    {
      "constant": true,
      "inputs": [],
      "name": "isCollateralClaimed",
      "outputs": [
        {
          "internalType": "bool",
          "name": "",
          "type": "bool"
        }
      ],
      "payable": false,
      "stateMutability": "view",
      "type": "function"
    },
    {
      "constant": true,
      "inputs": [],
      "name": "isFunded",
      "outputs": [
        {
          "internalType": "bool",
          "name": "",
          "type": "bool"
        }
      ],
      "payable": false,
      "stateMutability": "view",
      "type": "function"
    },
    {
      "constant": true,
      "inputs": [],
      "name": "isRepaid",
      "outputs": [
        {
          "internalType": "bool",
          "name": "",
          "type": "bool"
        }
      ],
      "payable": false,
      "stateMutability": "view",
      "type": "function"
    },
    {
      "constant": true,
      "inputs": [],
      "name": "lenderAddress",
      "outputs": [
        {
          "internalType": "address payable",
          "name": "",
          "type": "address"
        }
      ],
      "payable": false,
      "stateMutability": "view",
      "type": "function"
    },
    {
      "constant": true,
      "inputs": [],
      "name": "lendingContractAddress",
      "outputs": [
        {
          "internalType": "address",
          "name": "",
          "type": "address"
        }
      ],
      "payable": false,
      "stateMutability": "view",
      "type": "function"
    },
    {
      "constant": true,
      "inputs": [],
      "name": "loanAmount",
      "outputs": [
        {
          "internalType": "uint256",
          "name": "",
          "type": "uint256"
        }
      ],
      "payable": false,
      "stateMutability": "view",
      "type": "function"
    },
    {
      "constant": true,
      "inputs": [],
      "name": "loanManagementContractAddress",
      "outputs": [
        {
          "internalType": "address",
          "name": "",
          "type": "address"
        }
      ],
      "payable": false,
      "stateMutability": "view",
      "type": "function"
    },
    {
      "constant": true,
      "inputs": [],
      "name": "totalRepayableAmount",
      "outputs": [
        {
          "internalType": "uint256",
          "name": "",
          "type": "uint256"
        }
      ],
      "payable": false,
      "stateMutability": "view",
      "type": "function"
    },
    {
      "constant": false,
      "inputs": [
        {
          "internalType": "address",
          "name": "_lenderAddress",
          "type": "address"
        }
      ],
      "name": "setLender",
      "outputs": [],
      "payable": false,
      "stateMutability": "nonpayable",
      "type": "function"
    },
    {
      "constant": false,
      "inputs": [
        {
          "internalType": "address",
          "name": "_borrower",
          "type": "address"
        }
      ],
      "name": "repayLoan",
      "outputs": [],
      "payable": true,
      "stateMutability": "payable",
      "type": "function"
    },
    {
      "constant": false,
      "inputs": [
        {
          "internalType": "address",
          "name": "_lender",
          "type": "address"
        }
      ],
      "name": "claimCollateral",
      "outputs": [],
      "payable": false,
      "stateMutability": "nonpayable",
      "type": "function"
    },
    {
      "constant": true,
      "inputs": [],
      "name": "getSummary",
      "outputs": [
        {
          "internalType": "address",
          "name": "_borrower",
          "type": "address"
        },
        {
          "internalType": "address",
          "name": "_lender",
          "type": "address"
        },
        {
          "internalType": "address",
          "name": "_borrowingContractAddress",
          "type": "address"
        },
        {
          "internalType": "address",
          "name": "_lendingContractAddress",
          "type": "address"
        },
        {
          "internalType": "uint256",
          "name": "_amount",
          "type": "uint256"
        },
        {
          "internalType": "uint256",
          "name": "_interestRate",
          "type": "uint256"
        },
        {
          "internalType": "uint256",
          "name": "_dueDate",
          "type": "uint256"
        },
        {
          "internalType": "uint256",
          "name": "_totalRepayableAmount",
          "type": "uint256"
        },
        {
          "internalType": "bool",
          "name": "_isFunded",
          "type": "bool"
        },
        {
          "internalType": "bool",
          "name": "_isRepaid",
          "type": "bool"
        }
      ],
      "payable": false,
      "stateMutability": "view",
      "type": "function"
    },
    {
      "constant": true,
      "inputs": [],
      "name": "getCollateralName",
      "outputs": [
        {
          "internalType": "string",
          "name": "",
          "type": "string"
        }
      ],
      "payable": false,
      "stateMutability": "view",
      "type": "function"
    },
    {
      "constant": true,
      "inputs": [],
      "name": "getCollateralValue",
      "outputs": [
        {
          "internalType": "uint256",
          "name": "",
          "type": "uint256"
        }
      ],
      "payable": false,
      "stateMutability": "view",
      "type": "function"
    },
    {
      "constant": true,
      "inputs": [],
      "name": "getCollateralOwner",
      "outputs": [
        {
          "internalType": "address",
          "name": "",
          "type": "address"
        }
      ],
      "payable": false,
      "stateMutability": "view",
      "type": "function"
    }
  ],
  "bytecode": "0x60806040523480156200001157600080fd5b506040516200199838038062001998833981810160405260e08110156200003757600080fd5b810190808051906020019092919080519060200190929190805190602001909291908051906020019092919080519060200190929190805160405193929190846401000000008211156200008a57600080fd5b83820191506020820185811115620000a157600080fd5b8251866001820283011164010000000082111715620000bf57600080fd5b8083526020830192505050908051906020019080838360005b83811015620000f5578082015181840152602081019050620000d8565b50505050905090810190601f168015620001235780820380516001836020036101000a031916815260200191505b5060405260200180519060200190929190505050866000806101000a81548173ffffffffffffffffffffffffffffffffffffffff021916908373ffffffffffffffffffffffffffffffffffffffff16021790555030600260006101000a81548173ffffffffffffffffffffffffffffffffffffffff021916908373ffffffffffffffffffffffffffffffffffffffff16021790555033600460006101000a81548173ffffffffffffffffffffffffffffffffffffffff021916908373ffffffffffffffffffffffffffffffffffffffff16021790555082600360006101000a81548173ffffffffffffffffffffffffffffffffffffffff021916908373ffffffffffffffffffffffffffffffffffffffff1602179055508560058190555062000252856200038f60201b60201c565b600681905550606460065460055402816200026957fe5b046005540160078190555062000285846200043460201b60201c565b6008819055506000600960006101000a81548160ff0219169083151502179055506000600960016101000a81548160ff02191690831515021790555060405180606001604052808381526020018281526020018873ffffffffffffffffffffffffffffffffffffffff16815250600a600082015181600001908051906020019062000312929190620004ce565b506020820151816001015560408201518160020160006101000a81548173ffffffffffffffffffffffffffffffffffffffff021916908373ffffffffffffffffffffffffffffffffffffffff1602179055509050506000600d60006101000a81548160ff021916908315150217905550505050505050506200057d565b60006019821480620003a15750603282145b80620003ad5750604682145b62000404576040517f08c379a000000000000000000000000000000000000000000000000000000000815260040180806020018281038252602a8152602001806200196e602a913960400191505060405180910390fd5b601982146200042757603282146200041e57600c62000421565b60095b6200042a565b60055b60ff169050919050565b600080821480620004455750601e82145b8062000452575061016d82145b620004a9576040517f08c379a000000000000000000000000000000000000000000000000000000000815260040180806020018281038252602c81526020018062001942602c913960400191505060405180910390fd5b60008214620004c0576201518082024201620004c7565b62278d0042035b9050919050565b828054600181600116156101000203166002900490600052602060002090601f016020900481019282601f106200051157805160ff191683800117855562000542565b8280016001018555821562000542579182015b828111156200054157825182559160200191906001019062000524565b5b50905062000551919062000555565b5090565b6200057a91905b80821115620005765760008160009055506001016200055c565b5090565b90565b6113b5806200058d6000396000f3fe60806040526004361061011f5760003560e01c80637ba61ea5116100a05780639d585f7f116100645780639d585f7f1461067a578063c047e563146106a5578063c43b997e146106d0578063d8dfeb45146106ff578063f85a0e58146107c95761011f565b80637ba61ea5146105215780637c3a00fd146105785780637c654303146105a35780637f9af6cb146105d25780638235b284146106295761011f565b80636164051a116100e75780636164051a146103c257806367ae2bd2146103f157806369d81255146104485780637379dbe61461049f578063786716fe146104f65761011f565b8063054f733b14610124578063190ef1e61461017b578063328c45d4146101bf5780634051ddac1461024f57806346e368d414610371575b600080fd5b34801561013057600080fd5b506101396107f4565b604051808273ffffffffffffffffffffffffffffffffffffffff1673ffffffffffffffffffffffffffffffffffffffff16815260200191505060405180910390f35b6101bd6004803603602081101561019157600080fd5b81019080803573ffffffffffffffffffffffffffffffffffffffff169060200190929190505050610821565b005b3480156101cb57600080fd5b506101d4610b64565b6040518080602001828103825283818151815260200191508051906020019080838360005b838110156102145780820151818401526020810190506101f9565b50505050905090810190601f1680156102415780820380516001836020036101000a031916815260200191505b509250505060405180910390f35b34801561025b57600080fd5b50610264610c09565b604051808b73ffffffffffffffffffffffffffffffffffffffff1673ffffffffffffffffffffffffffffffffffffffff1681526020018a73ffffffffffffffffffffffffffffffffffffffff1673ffffffffffffffffffffffffffffffffffffffff1681526020018973ffffffffffffffffffffffffffffffffffffffff1673ffffffffffffffffffffffffffffffffffffffff1681526020018873ffffffffffffffffffffffffffffffffffffffff1673ffffffffffffffffffffffffffffffffffffffff16815260200187815260200186815260200185815260200184815260200183151515158152602001821515151581526020019a505050505050505050505060405180910390f35b34801561037d57600080fd5b506103c06004803603602081101561039457600080fd5b81019080803573ffffffffffffffffffffffffffffffffffffffff169060200190929190505050610cf5565b005b3480156103ce57600080fd5b506103d7610ea1565b604051808215151515815260200191505060405180910390f35b3480156103fd57600080fd5b50610406610eb4565b604051808273ffffffffffffffffffffffffffffffffffffffff1673ffffffffffffffffffffffffffffffffffffffff16815260200191505060405180910390f35b34801561045457600080fd5b5061045d610eda565b604051808273ffffffffffffffffffffffffffffffffffffffff1673ffffffffffffffffffffffffffffffffffffffff16815260200191505060405180910390f35b3480156104ab57600080fd5b506104b4610f00565b604051808273ffffffffffffffffffffffffffffffffffffffff1673ffffffffffffffffffffffffffffffffffffffff16815260200191505060405180910390f35b34801561050257600080fd5b5061050b610f26565b6040518082815260200191505060405180910390f35b34801561052d57600080fd5b50610536610f2c565b604051808273ffffffffffffffffffffffffffffffffffffffff1673ffffffffffffffffffffffffffffffffffffffff16815260200191505060405180910390f35b34801561058457600080fd5b5061058d610f51565b6040518082815260200191505060405180910390f35b3480156105af57600080fd5b506105b8610f57565b604051808215151515815260200191505060405180910390f35b3480156105de57600080fd5b506105e7610f6a565b604051808273ffffffffffffffffffffffffffffffffffffffff1673ffffffffffffffffffffffffffffffffffffffff16815260200191505060405180910390f35b34801561063557600080fd5b506106786004803603602081101561064c57600080fd5b81019080803573ffffffffffffffffffffffffffffffffffffffff169060200190929190505050610f90565b005b34801561068657600080fd5b5061068f611197565b6040518082815260200191505060405180910390f35b3480156106b157600080fd5b506106ba61119d565b6040518082815260200191505060405180910390f35b3480156106dc57600080fd5b506106e56111aa565b604051808215151515815260200191505060405180910390f35b34801561070b57600080fd5b506107146111bd565b60405180806020018481526020018373ffffffffffffffffffffffffffffffffffffffff1673ffffffffffffffffffffffffffffffffffffffff168152602001828103825285818151815260200191508051906020019080838360005b8381101561078c578082015181840152602081019050610771565b50505050905090810190601f1680156107b95780820380516001836020036101000a031916815260200191505b5094505050505060405180910390f35b3480156107d557600080fd5b506107de61128d565b6040518082815260200191505060405180910390f35b6000600a60020160009054906101000a900473ffffffffffffffffffffffffffffffffffffffff16905090565b600460009054906101000a900473ffffffffffffffffffffffffffffffffffffffff1673ffffffffffffffffffffffffffffffffffffffff163373ffffffffffffffffffffffffffffffffffffffff16146108c7576040517f08c379a000000000000000000000000000000000000000000000000000000000815260040180806020018281038252603281526020018061134f6032913960400191505060405180910390fd5b6000809054906101000a900473ffffffffffffffffffffffffffffffffffffffff1673ffffffffffffffffffffffffffffffffffffffff168173ffffffffffffffffffffffffffffffffffffffff1614610989576040517f08c379a00000000000000000000000000000000000000000000000000000000081526004018080602001828103825260208152602001807f42433a204f6e6c7920626f72726f7765722063616e207265706179206c6f616e81525060200191505060405180910390fd5b6007543414610a00576040517f08c379a000000000000000000000000000000000000000000000000000000000815260040180806020018281038252601c8152602001807f42433a20496e636f72726563742066756e64696e6720616d6f756e740000000081525060200191505060405180910390fd5b600960009054906101000a900460ff16610a82576040517f08c379a00000000000000000000000000000000000000000000000000000000081526004018080602001828103825260168152602001807f42433a204c6f616e206973206e6f742066756e6465640000000000000000000081525060200191505060405180910390fd5b600854421115610add576040517f08c379a00000000000000000000000000000000000000000000000000000000081526004018080602001828103825260218152602001806112d66021913960400191505060405180910390fd5b600160009054906101000a900473ffffffffffffffffffffffffffffffffffffffff1673ffffffffffffffffffffffffffffffffffffffff166108fc349081150290604051600060405180830381858888f19350505050158015610b45573d6000803e3d6000fd5b506001600960016101000a81548160ff02191690831515021790555050565b6060600a6000018054600181600116156101000203166002900480601f016020809104026020016040519081016040528092919081815260200182805460018160011615610100020316600290048015610bff5780601f10610bd457610100808354040283529160200191610bff565b820191906000526020600020905b815481529060010190602001808311610be257829003601f168201915b5050505050905090565b6000806000806000806000806000806000809054906101000a900473ffffffffffffffffffffffffffffffffffffffff16600160009054906101000a900473ffffffffffffffffffffffffffffffffffffffff16600260009054906101000a900473ffffffffffffffffffffffffffffffffffffffff16600360009054906101000a900473ffffffffffffffffffffffffffffffffffffffff16600554600654600854600754600960009054906101000a900460ff16600960019054906101000a900460ff16899950889850995099509950995099509950995099509950995090919293949596979899565b6000809054906101000a900473ffffffffffffffffffffffffffffffffffffffff1673ffffffffffffffffffffffffffffffffffffffff168173ffffffffffffffffffffffffffffffffffffffff161415610d9b576040517f08c379a00000000000000000000000000000000000000000000000000000000081526004018080602001828103825260218152602001806112946021913960400191505060405180910390fd5b600073ffffffffffffffffffffffffffffffffffffffff16600160009054906101000a900473ffffffffffffffffffffffffffffffffffffffff1673ffffffffffffffffffffffffffffffffffffffff1614610e42576040517f08c379a00000000000000000000000000000000000000000000000000000000081526004018080602001828103825260348152602001806112f76034913960400191505060405180910390fd5b80600160006101000a81548173ffffffffffffffffffffffffffffffffffffffff021916908373ffffffffffffffffffffffffffffffffffffffff1602179055506001600960006101000a81548160ff02191690831515021790555050565b600960019054906101000a900460ff1681565b600260009054906101000a900473ffffffffffffffffffffffffffffffffffffffff1681565b600160009054906101000a900473ffffffffffffffffffffffffffffffffffffffff1681565b600360009054906101000a900473ffffffffffffffffffffffffffffffffffffffff1681565b60085481565b6000809054906101000a900473ffffffffffffffffffffffffffffffffffffffff1681565b60065481565b600960009054906101000a900460ff1681565b600460009054906101000a900473ffffffffffffffffffffffffffffffffffffffff1681565b8073ffffffffffffffffffffffffffffffffffffffff16600160009054906101000a900473ffffffffffffffffffffffffffffffffffffffff1673ffffffffffffffffffffffffffffffffffffffff1614611036576040517f08c379a000000000000000000000000000000000000000000000000000000000815260040180806020018281038252602481526020018061132b6024913960400191505060405180910390fd5b600960019054906101000a900460ff16156110b9576040517f08c379a000000000000000000000000000000000000000000000000000000000815260040180806020018281038252601a8152602001807f42433a204c6f616e20697320616c72656164792072657061696400000000000081525060200191505060405180910390fd5b6008544211611113576040517f08c379a00000000000000000000000000000000000000000000000000000000081526004018080602001828103825260218152602001806112b56021913960400191505060405180910390fd5b600160009054906101000a900473ffffffffffffffffffffffffffffffffffffffff16600a60020160006101000a81548173ffffffffffffffffffffffffffffffffffffffff021916908373ffffffffffffffffffffffffffffffffffffffff1602179055506001600d60006101000a81548160ff02191690831515021790555050565b60055481565b6000600a60010154905090565b600d60009054906101000a900460ff1681565b600a806000018054600181600116156101000203166002900480601f0160208091040260200160405190810160405280929190818152602001828054600181600116156101000203166002900480156112575780601f1061122c57610100808354040283529160200191611257565b820191906000526020600020905b81548152906001019060200180831161123a57829003601f168201915b5050505050908060010154908060020160009054906101000a900473ffffffffffffffffffffffffffffffffffffffff16905083565b6007548156fe42433a20426f72726f7765722063616e6e6f7420626520746865206c656e64657242433a204c6f616e207465726d20686173206e6f7420657870697265642079657442433a204c6f616e207465726d2068617320616c7265616479206578706972656442433a204c656e64657220616c7265616479207365742c2063616e6e6f74206368616e6765206c656e646572206164647265737342433a204f6e6c79206c656e6465722063616e20636c61696d20636f6c6c61746572616c42433a20556e617574686f72697a65642066756e6374696f6e2063616c6c2066726f6d204c6f616e4d616e6167656d656e74a265627a7a72315820e7ea8c1a02d12e2a29f76f144f71975ac7a04f032b12d68f5c1926b997d2f0ff64736f6c6343000510003242433a20496e76616c6964206c6f616e207465726d20286f6e6c7920302c2033302c2033363520646179732942433a20496e76616c6964204c5456206f7074696f6e20286f6e6c792032352c35302c206f7220373029",
  "source": "// SPDX-License-Identifier: MIT\r\npragma solidity ^0.5.0;\r\n\r\ncontract BorrowingContract {\r\n    address payable public borrowerAddress;\r\n    address payable public lenderAddress;\r\n    address public borrowingContractAddress;\r\n    address public lendingContractAddress;\r\n    address public loanManagementContractAddress;\r\n\r\n    uint public loanAmount;\r\n    uint public interestRate;\r\n    uint public totalRepayableAmount;\r\n    uint public dueDate;\r\n    bool public isFunded;\r\n    bool public isRepaid;\r\n\r\n    struct CollateralProduct {\r\n        string name;\r\n        uint value;\r\n        address owner;\r\n    }\r\n\r\n    CollateralProduct public collateral;\r\n    bool public isCollateralClaimed;\r\n\r\n    constructor(\r\n        address _borrower,\r\n        uint _loanAmount,\r\n        uint _ltv,\r\n        uint _dueDate,\r\n        address _lendingContractAddress,\r\n        string memory _productName,\r\n        uint _productValue\r\n    ) public {\r\n        borrowerAddress = address(uint160(_borrower));\r\n        borrowingContractAddress = address(this);\r\n        loanManagementContractAddress = msg.sender;\r\n        lendingContractAddress = _lendingContractAddress;\r\n        loanAmount = _loanAmount;\r\n        interestRate = setInterestRate(_ltv);\r\n        totalRepayableAmount = loanAmount + ((loanAmount * interestRate) / 100);\r\n        dueDate = setLoanTerm(_dueDate);\r\n        isFunded = false;\r\n        isRepaid = false;\r\n\r\n        collateral = CollateralProduct({\r\n            name: _productName,\r\n            value: _productValue,\r\n            owner: _borrower\r\n        });\r\n        isCollateralClaimed = false;\r\n    }\r\n\r\n    function setLender(address _lenderAddress) external {\r\n        require(\r\n            _lenderAddress != borrowerAddress,\r\n            \"BC: Borrower cannot be the lender\"\r\n        );\r\n        require(\r\n            lenderAddress == address(0),\r\n            \"BC: Lender already set, cannot change lender address\"\r\n        );\r\n        lenderAddress = address(uint160(_lenderAddress));\r\n        isFunded = true;\r\n    }\r\n\r\n    function repayLoan(address _borrower) external payable {\r\n        require(\r\n            msg.sender == loanManagementContractAddress,\r\n            \"BC: Unauthorized function call from LoanManagement\"\r\n        );\r\n        require(\r\n            _borrower == borrowerAddress,\r\n            \"BC: Only borrower can repay loan\"\r\n        );\r\n        require(\r\n            msg.value == totalRepayableAmount,\r\n            \"BC: Incorrect funding amount\"\r\n        );\r\n        require(isFunded, \"BC: Loan is not funded\");\r\n\r\n        require(\r\n            block.timestamp <= dueDate,\r\n            \"BC: Loan term has already expired\"\r\n        );\r\n        lenderAddress.transfer(msg.value);\r\n        isRepaid = true;\r\n    }\r\n\r\n    function claimCollateral(address _lender) external {\r\n        require(\r\n            lenderAddress == _lender,\r\n            \"BC: Only lender can claim collateral\"\r\n        );\r\n        require(!isRepaid, \"BC: Loan is already repaid\");\r\n        require(block.timestamp > dueDate, \"BC: Loan term has not expired yet\");\r\n\r\n        collateral.owner = lenderAddress;\r\n        isCollateralClaimed = true;\r\n    }\r\n\r\n    function setInterestRate(uint _ltv) internal pure returns (uint) {\r\n        require(\r\n            _ltv == 25 || _ltv == 50 || _ltv == 70,\r\n            \"BC: Invalid LTV option (only 25,50, or 70)\"\r\n        );\r\n        return _ltv == 25 ? 5 : (_ltv == 50 ? 9 : 12);\r\n    }\r\n\r\n    function setLoanTerm(uint loanTermDays) internal view returns (uint) {\r\n        require(\r\n            loanTermDays == 0 || loanTermDays == 30 || loanTermDays == 365,\r\n            \"BC: Invalid loan term (only 0, 30, 365 days)\"\r\n        );\r\n        return\r\n            loanTermDays == 0\r\n                ? block.timestamp - (30 * 24 * 60 * 60) // 30 days ago\r\n                : block.timestamp + (loanTermDays * 1 days);\r\n    }\r\n\r\n    function getSummary()\r\n        external\r\n        view\r\n        returns (\r\n            address _borrower,\r\n            address _lender,\r\n            address _borrowingContractAddress,\r\n            address _lendingContractAddress,\r\n            uint _amount,\r\n            uint _interestRate,\r\n            uint _dueDate,\r\n            uint _totalRepayableAmount,\r\n            bool _isFunded,\r\n            bool _isRepaid\r\n        )\r\n    {\r\n        return (\r\n            borrowerAddress,\r\n            lenderAddress,\r\n            borrowingContractAddress,\r\n            lendingContractAddress,\r\n            loanAmount,\r\n            interestRate,\r\n            dueDate,\r\n            totalRepayableAmount,\r\n            isFunded,\r\n            isRepaid\r\n        );\r\n    }\r\n\r\n    function getCollateralName() external view returns (string memory) {\r\n        return collateral.name;\r\n    }\r\n\r\n    function getCollateralValue() external view returns (uint) {\r\n        return collateral.value;\r\n    }\r\n\r\n    function getCollateralOwner() external view returns (address) {\r\n        return collateral.owner;\r\n    }\r\n}\r\n",
  "sourcePath": "C:\\Users\\Win\\Desktop\\p2plending_dapps\\src\\contracts\\BorrowingContract.sol",
  "compiler": {
    "name": "solc",
    "version": "0.5.16+commit.9c3226ce.Emscripten.clang"
  },
  "schemaVersion": "3.4.16",
  "updatedAt": "2023-12-18T03:12:50.533Z",
  "devdoc": {
    "methods": {}
  },
  "userdoc": {
    "methods": {}
  }
}