{
  "contractName": "LoanManagementContract",
  "abi": [
    {
      "inputs": [],
      "payable": false,
      "stateMutability": "nonpayable",
      "type": "constructor"
    },
    {
      "anonymous": false,
      "inputs": [
        {
          "indexed": false,
          "internalType": "address",
          "name": "borrowingContractAddress",
          "type": "address"
        },
        {
          "indexed": false,
          "internalType": "address",
          "name": "borrower",
          "type": "address"
        },
        {
          "indexed": false,
          "internalType": "uint256",
          "name": "amount",
          "type": "uint256"
        },
        {
          "indexed": false,
          "internalType": "string",
          "name": "productName",
          "type": "string"
        },
        {
          "indexed": false,
          "internalType": "uint256",
          "name": "productValue",
          "type": "uint256"
        }
      ],
      "name": "BorrowingContractCreated",
      "type": "event"
    },
    {
      "anonymous": false,
      "inputs": [
        {
          "indexed": false,
          "internalType": "address",
          "name": "borrowingContractAddress",
          "type": "address"
        },
        {
          "indexed": false,
          "internalType": "address",
          "name": "lender",
          "type": "address"
        },
        {
          "indexed": false,
          "internalType": "string",
          "name": "collateralName",
          "type": "string"
        }
      ],
      "name": "CollateralClaimed",
      "type": "event"
    },
    {
      "anonymous": false,
      "inputs": [
        {
          "indexed": false,
          "internalType": "address",
          "name": "borrowingContractAddress",
          "type": "address"
        },
        {
          "indexed": false,
          "internalType": "address",
          "name": "borrower",
          "type": "address"
        },
        {
          "indexed": false,
          "internalType": "uint256",
          "name": "amountRepaid",
          "type": "uint256"
        }
      ],
      "name": "LoanRepaid",
      "type": "event"
    },
    {
      "anonymous": false,
      "inputs": [
        {
          "indexed": false,
          "internalType": "address",
          "name": "lendingContractAddress",
          "type": "address"
        },
        {
          "indexed": false,
          "internalType": "address",
          "name": "lender",
          "type": "address"
        },
        {
          "indexed": false,
          "internalType": "uint256",
          "name": "totalFunds",
          "type": "uint256"
        }
      ],
      "name": "PoolLendingContractCreated",
      "type": "event"
    },
    {
      "constant": true,
      "inputs": [
        {
          "internalType": "uint256",
          "name": "",
          "type": "uint256"
        }
      ],
      "name": "borrowingContractAddresses",
      "outputs": [
        {
          "internalType": "address",
          "name": "",
          "type": "address"
        }
      ],
      "payable": false,
      "stateMutability": "view",
      "type": "function"
    },
    {
      "constant": true,
      "inputs": [],
      "name": "borrowingContractCount",
      "outputs": [
        {
          "internalType": "uint256",
          "name": "",
          "type": "uint256"
        }
      ],
      "payable": false,
      "stateMutability": "view",
      "type": "function"
    },
    {
      "constant": true,
      "inputs": [
        {
          "internalType": "address",
          "name": "",
          "type": "address"
        },
        {
          "internalType": "uint256",
          "name": "",
          "type": "uint256"
        }
      ],
      "name": "borrowingContracts",
      "outputs": [
        {
          "internalType": "address",
          "name": "",
          "type": "address"
        }
      ],
      "payable": false,
      "stateMutability": "view",
      "type": "function"
    },
    {
      "constant": true,
      "inputs": [],
      "name": "dappName",
      "outputs": [
        {
          "internalType": "string",
          "name": "",
          "type": "string"
        }
      ],
      "payable": false,
      "stateMutability": "view",
      "type": "function"
    },
    {
      "constant": true,
      "inputs": [
        {
          "internalType": "uint256",
          "name": "",
          "type": "uint256"
        }
      ],
      "name": "lendingContractAddresses",
      "outputs": [
        {
          "internalType": "address",
          "name": "",
          "type": "address"
        }
      ],
      "payable": false,
      "stateMutability": "view",
      "type": "function"
    },
    {
      "constant": true,
      "inputs": [],
      "name": "lendingContractCount",
      "outputs": [
        {
          "internalType": "uint256",
          "name": "",
          "type": "uint256"
        }
      ],
      "payable": false,
      "stateMutability": "view",
      "type": "function"
    },
    {
      "constant": true,
      "inputs": [
        {
          "internalType": "address",
          "name": "",
          "type": "address"
        },
        {
          "internalType": "uint256",
          "name": "",
          "type": "uint256"
        }
      ],
      "name": "lendingContracts",
      "outputs": [
        {
          "internalType": "address",
          "name": "",
          "type": "address"
        }
      ],
      "payable": false,
      "stateMutability": "view",
      "type": "function"
    },
    {
      "constant": false,
      "inputs": [],
      "name": "createLendingContract",
      "outputs": [],
      "payable": true,
      "stateMutability": "payable",
      "type": "function"
    },
    {
      "constant": false,
      "inputs": [
        {
          "internalType": "address",
          "name": "_lendingContractAddress",
          "type": "address"
        },
        {
          "internalType": "uint256",
          "name": "_amount",
          "type": "uint256"
        },
        {
          "internalType": "uint256",
          "name": "_interestRate",
          "type": "uint256"
        },
        {
          "internalType": "uint256",
          "name": "_dueDate",
          "type": "uint256"
        },
        {
          "internalType": "string",
          "name": "_productName",
          "type": "string"
        },
        {
          "internalType": "uint256",
          "name": "_productValue",
          "type": "uint256"
        }
      ],
      "name": "createBorrowingContract",
      "outputs": [],
      "payable": false,
      "stateMutability": "nonpayable",
      "type": "function"
    },
    {
      "constant": false,
      "inputs": [
        {
          "internalType": "address",
          "name": "_borrowingContractAddress",
          "type": "address"
        }
      ],
      "name": "borrowerRepayLoan",
      "outputs": [],
      "payable": true,
      "stateMutability": "payable",
      "type": "function"
    },
    {
      "constant": false,
      "inputs": [
        {
          "internalType": "address",
          "name": "_borrowingContractAddress",
          "type": "address"
        }
      ],
      "name": "lenderClaimCollateralFromLoan",
      "outputs": [],
      "payable": false,
      "stateMutability": "nonpayable",
      "type": "function"
    },
    {
      "constant": true,
      "inputs": [
        {
          "internalType": "address",
          "name": "_lenderAddress",
          "type": "address"
        }
      ],
      "name": "getLendingContractsByLender",
      "outputs": [
        {
          "internalType": "address[]",
          "name": "",
          "type": "address[]"
        }
      ],
      "payable": false,
      "stateMutability": "view",
      "type": "function"
    },
    {
      "constant": true,
      "inputs": [
        {
          "internalType": "address",
          "name": "_borrowerAddress",
          "type": "address"
        }
      ],
      "name": "getBorrowingContractByBorrwer",
      "outputs": [
        {
          "internalType": "address[]",
          "name": "",
          "type": "address[]"
        }
      ],
      "payable": false,
      "stateMutability": "view",
      "type": "function"
    },
    {
      "constant": true,
      "inputs": [
        {
          "internalType": "address",
          "name": "_lendingContractAddress",
          "type": "address"
        }
      ],
      "name": "lendingContractSumamry",
      "outputs": [
        {
          "internalType": "address",
          "name": "_lender",
          "type": "address"
        },
        {
          "internalType": "address",
          "name": "_lendingContractAddressFromSelf",
          "type": "address"
        },
        {
          "internalType": "uint256",
          "name": "_totalFunds",
          "type": "uint256"
        },
        {
          "internalType": "uint256",
          "name": "_availableFunds",
          "type": "uint256"
        }
      ],
      "payable": false,
      "stateMutability": "view",
      "type": "function"
    },
    {
      "constant": true,
      "inputs": [
        {
          "internalType": "address",
          "name": "_borrowingContractAddress",
          "type": "address"
        }
      ],
      "name": "borrowingContractSummary",
      "outputs": [
        {
          "internalType": "address",
          "name": "_borrower",
          "type": "address"
        },
        {
          "internalType": "address",
          "name": "_lender",
          "type": "address"
        },
        {
          "internalType": "address",
          "name": "_borrowingContractAddressFromSelf",
          "type": "address"
        },
        {
          "internalType": "address",
          "name": "_lendingContractAddress",
          "type": "address"
        },
        {
          "internalType": "uint256",
          "name": "_amount",
          "type": "uint256"
        },
        {
          "internalType": "uint256",
          "name": "_interestRate",
          "type": "uint256"
        },
        {
          "internalType": "uint256",
          "name": "_dueDate",
          "type": "uint256"
        },
        {
          "internalType": "uint256",
          "name": "_totalRepayableAmount",
          "type": "uint256"
        },
        {
          "internalType": "bool",
          "name": "_isFunded",
          "type": "bool"
        },
        {
          "internalType": "bool",
          "name": "_isRepaid",
          "type": "bool"
        }
      ],
      "payable": false,
      "stateMutability": "view",
      "type": "function"
    },
    {
      "constant": true,
      "inputs": [
        {
          "internalType": "address",
          "name": "_borrowingContractAddress",
          "type": "address"
        }
      ],
      "name": "getProductDetailsFromBorrowingContract",
      "outputs": [
        {
          "internalType": "string",
          "name": "name",
          "type": "string"
        },
        {
          "internalType": "uint256",
          "name": "value",
          "type": "uint256"
        },
        {
          "internalType": "address",
          "name": "owner",
          "type": "address"
        }
      ],
      "payable": false,
      "stateMutability": "view",
      "type": "function"
    },
    {
      "constant": true,
      "inputs": [
        {
          "internalType": "address",
          "name": "_owner",
          "type": "address"
        }
      ],
      "name": "getAllProductsOwnedBy",
      "outputs": [
        {
          "components": [
            {
              "internalType": "string",
              "name": "name",
              "type": "string"
            },
            {
              "internalType": "uint256",
              "name": "value",
              "type": "uint256"
            },
            {
              "internalType": "address",
              "name": "owner",
              "type": "address"
            }
          ],
          "internalType": "struct LoanManagementContract.CollateralProduct[]",
          "name": "",
          "type": "tuple[]"
        }
      ],
      "payable": false,
      "stateMutability": "view",
      "type": "function"
    }
  ],
  "bytecode": "0x6080604052600060035560006005553480156200001b57600080fd5b506040518060400160405280601481526020017f426967426f79204c656e64696e6720436f72702e000000000000000000000000815250600090805190602001906200006992919062000070565b506200011f565b828054600181600116156101000203166002900490600052602060002090601f016020900481019282601f10620000b357805160ff1916838001178555620000e4565b82800160010185558215620000e4579182015b82811115620000e3578251825591602001919060010190620000c6565b5b509050620000f39190620000f7565b5090565b6200011c91905b8082111562000118576000816000905550600101620000fe565b5090565b90565b6150a1806200012f6000396000f3fe608060405260043610620001165760003560e01c8063764b234611620000a3578063ba4f1abe116200006d578063ba4f1abe14620003bb578063ddd56c8e14620003eb578063e7d4d556146200041b578063f2066ce01462000461578063f3109d3914620004a55762000116565b8063764b234614620002e557806381c2a1351462000329578063a109705f146200036d578063aace0673146200039b5762000116565b806357f3ab8511620000e557806357f3ab8514620001c95780635aa21aa4146200020d57806366954ce614620002545780636755a8f814620002a15762000116565b80630d1a0971146200011b5780632169a0e21462000127578063366e8f2a146200016b5780634f81c1ff1462000199575b600080fd5b62000125620004e9565b005b3480156200013457600080fd5b506200015360048036036200014d91908101906200200c565b62000671565b60405162000162919062002c0f565b60405180910390f35b3480156200017857600080fd5b506200019760048036036200019191908101906200222d565b62000740565b005b348015620001a657600080fd5b50620001b162000dbc565b604051620001c0919062002c57565b60405180910390f35b348015620001d657600080fd5b50620001f56004803603620001ef91908101906200200c565b62000e5e565b60405162000204919062002c0f565b60405180910390f35b3480156200021a57600080fd5b506200023960048036036200023391908101906200200c565b62000f2d565b6040516200024b949392919062002bc2565b60405180910390f35b3480156200026157600080fd5b506200028060048036036200027a91908101906200200c565b6200103d565b604051620002989a9998979695949392919062002aae565b60405180910390f35b348015620002ae57600080fd5b50620002cd6004803603620002c79190810190620021ec565b62001169565b604051620002dc919062002940565b60405180910390f35b348015620002f257600080fd5b506200031160048036036200030b919081019062002327565b620011b5565b60405162000320919062002940565b60405180910390f35b3480156200033657600080fd5b506200035560048036036200034f91908101906200200c565b620011e8565b60405162000364919062002c33565b60405180910390f35b3480156200037a57600080fd5b506200039960048036036200039391908101906200200c565b620016ed565b005b620003b96004803603620003b391908101906200200c565b62001993565b005b348015620003c857600080fd5b50620003d362001bae565b604051620003e2919062002dcf565b60405180910390f35b348015620003f857600080fd5b506200040362001bb4565b60405162000412919062002dcf565b60405180910390f35b3480156200042857600080fd5b506200044760048036036200044191908101906200200c565b62001bba565b604051620004589392919062002c7b565b60405180910390f35b3480156200046e57600080fd5b506200048d6004803603620004879190810190620021ec565b62001dd0565b6040516200049c919062002940565b60405180910390f35b348015620004b257600080fd5b50620004d16004803603620004cb919081019062002327565b62001e1c565b604051620004e0919062002940565b60405180910390f35b60003433604051620004fb9062001e4f565b6200050791906200295d565b6040518091039082f08015801562000523573d6000803e3d6000fd5b5090509050600160003373ffffffffffffffffffffffffffffffffffffffff1673ffffffffffffffffffffffffffffffffffffffff1681526020019081526020016000208190806001815401808255809150509060018203906000526020600020016000909192909190916101000a81548173ffffffffffffffffffffffffffffffffffffffff021916908373ffffffffffffffffffffffffffffffffffffffff160217905550506003600081548092919060010191905055508060046000600354815260200190815260200160002060006101000a81548173ffffffffffffffffffffffffffffffffffffffff021916908373ffffffffffffffffffffffffffffffffffffffff1602179055507f8bfb3988d57b0d34630b35882d1a06db928f8bd172c74599bed39b29b1e92a08813334604051620006669392919062002a71565b60405180910390a150565b6060600260008373ffffffffffffffffffffffffffffffffffffffff1673ffffffffffffffffffffffffffffffffffffffff1681526020019081526020016000208054806020026020016040519081016040528092919081815260200182805480156200073457602002820191906000526020600020905b8160009054906101000a900473ffffffffffffffffffffffffffffffffffffffff1673ffffffffffffffffffffffffffffffffffffffff1681526020019060010190808311620006e9575b50505050509050919050565b60008790508073ffffffffffffffffffffffffffffffffffffffff166346fcff4c6040518163ffffffff1660e01b815260040160206040518083038186803b1580156200078c57600080fd5b505afa158015620007a1573d6000803e3d6000fd5b505050506040513d601f19601f82011682018060405250620007c7919081019062002353565b8711156200080c576040517f08c379a0000000000000000000000000000000000000000000000000000000008152600401620008039062002d8b565b60405180910390fd5b6000848490501162000855576040517f08c379a00000000000000000000000000000000000000000000000000000000081526004016200084c9062002d69565b60405180910390fd5b8682116200089a576040517f08c379a0000000000000000000000000000000000000000000000000000000008152600401620008919062002d03565b60405180910390fd5b6000338888888c898989604051620008b29062001e5d565b620008c5989796959493929190620029a7565b604051809103906000f080158015620008e2573d6000803e3d6000fd5b509050600260003373ffffffffffffffffffffffffffffffffffffffff1673ffffffffffffffffffffffffffffffffffffffff1681526020019081526020016000208190806001815401808255809150509060018203906000526020600020016000909192909190916101000a81548173ffffffffffffffffffffffffffffffffffffffff021916908373ffffffffffffffffffffffffffffffffffffffff160217905550508173ffffffffffffffffffffffffffffffffffffffff16634b04fc92338a6040518363ffffffff1660e01b8152600401620009c59291906200297a565b600060405180830381600087803b158015620009e057600080fd5b505af1158015620009f5573d6000803e3d6000fd5b505050508073ffffffffffffffffffffffffffffffffffffffff166346e368d48373ffffffffffffffffffffffffffffffffffffffff166369d812556040518163ffffffff1660e01b815260040160206040518083038186803b15801562000a5c57600080fd5b505afa15801562000a71573d6000803e3d6000fd5b505050506040513d601f19601f8201168201806040525062000a97919081019062002038565b6040518263ffffffff1660e01b815260040162000ab5919062002940565b600060405180830381600087803b15801562000ad057600080fd5b505af115801562000ae5573d6000803e3d6000fd5b505050506005600081548092919060010191905055508060066000600554815260200190815260200160002060006101000a81548173ffffffffffffffffffffffffffffffffffffffff021916908373ffffffffffffffffffffffffffffffffffffffff16021790555060608173ffffffffffffffffffffffffffffffffffffffff1663328c45d46040518163ffffffff1660e01b815260040160006040518083038186803b15801562000b9857600080fd5b505afa15801562000bad573d6000803e3d6000fd5b505050506040513d6000823e3d601f19601f8201168201806040525062000bd89190810190620022e2565b905060008273ffffffffffffffffffffffffffffffffffffffff1663c047e5636040518163ffffffff1660e01b815260040160206040518083038186803b15801562000c2357600080fd5b505afa15801562000c38573d6000803e3d6000fd5b505050506040513d601f19601f8201168201806040525062000c5e919081019062002353565b905060008373ffffffffffffffffffffffffffffffffffffffff16637ba61ea56040518163ffffffff1660e01b815260040160206040518083038186803b15801562000ca957600080fd5b505afa15801562000cbe573d6000803e3d6000fd5b505050506040513d601f19601f8201168201806040525062000ce4919081019062002064565b905060008473ffffffffffffffffffffffffffffffffffffffff16639d585f7f6040518163ffffffff1660e01b815260040160206040518083038186803b15801562000d2f57600080fd5b505afa15801562000d44573d6000803e3d6000fd5b505050506040513d601f19601f8201168201806040525062000d6a919081019062002353565b90507fe4d95233bdcf26cef86b596154661007afe77ccc9ad56fc8953e6f940cbadd87858383878760405162000da595949392919062002b5e565b60405180910390a150505050505050505050505050565b60008054600181600116156101000203166002900480601f01602080910402602001604051908101604052809291908181526020018280546001816001161561010002031660029004801562000e565780601f1062000e2a5761010080835404028352916020019162000e56565b820191906000526020600020905b81548152906001019060200180831162000e3857829003601f168201915b505050505081565b6060600160008373ffffffffffffffffffffffffffffffffffffffff1673ffffffffffffffffffffffffffffffffffffffff16815260200190815260200160002080548060200260200160405190810160405280929190818152602001828054801562000f2157602002820191906000526020600020905b8160009054906101000a900473ffffffffffffffffffffffffffffffffffffffff1673ffffffffffffffffffffffffffffffffffffffff168152602001906001019080831162000ed6575b50505050509050919050565b600080600080600073ffffffffffffffffffffffffffffffffffffffff168573ffffffffffffffffffffffffffffffffffffffff16141562000fa6576040517f08c379a000000000000000000000000000000000000000000000000000000000815260040162000f9d9062002d25565b60405180910390fd5b60008590508073ffffffffffffffffffffffffffffffffffffffff16634051ddac6040518163ffffffff1660e01b815260040160806040518083038186803b15801562000ff257600080fd5b505afa15801562001007573d6000803e3d6000fd5b505050506040513d601f19601f820116820180604052506200102d919081019062002180565b9450945094509450509193509193565b600080600080600080600080600080600073ffffffffffffffffffffffffffffffffffffffff168b73ffffffffffffffffffffffffffffffffffffffff161415620010bf576040517f08c379a0000000000000000000000000000000000000000000000000000000008152600401620010b69062002d47565b60405180910390fd5b60008b90508073ffffffffffffffffffffffffffffffffffffffff16634051ddac6040518163ffffffff1660e01b81526004016101406040518083038186803b1580156200110c57600080fd5b505afa15801562001121573d6000803e3d6000fd5b505050506040513d601f19601f8201168201806040525062001147919081019062002090565b9a509a509a509a509a509a509a509a509a509a50509193959799509193959799565b600160205281600052604060002081815481106200118357fe5b906000526020600020016000915091509054906101000a900473ffffffffffffffffffffffffffffffffffffffff1681565b60066020528060005260406000206000915054906101000a900473ffffffffffffffffffffffffffffffffffffffff1681565b606080600260008473ffffffffffffffffffffffffffffffffffffffff1673ffffffffffffffffffffffffffffffffffffffff168152602001908152602001600020805480602002602001604051908101604052809291908181526020018280548015620012ac57602002820191906000526020600020905b8160009054906101000a900473ffffffffffffffffffffffffffffffffffffffff1673ffffffffffffffffffffffffffffffffffffffff168152602001906001019080831162001261575b50505050509050600080905060008090505b8251811015620013af576000838281518110620012d757fe5b602002602001015190508573ffffffffffffffffffffffffffffffffffffffff168173ffffffffffffffffffffffffffffffffffffffff1663054f733b6040518163ffffffff1660e01b815260040160206040518083038186803b1580156200133f57600080fd5b505afa15801562001354573d6000803e3d6000fd5b505050506040513d601f19601f820116820180604052506200137a919081019062002038565b73ffffffffffffffffffffffffffffffffffffffff161415620013a05782806001019350505b508080600101915050620012be565b50606081604051908082528060200260200182016040528015620013f057816020015b620013dc62001e6b565b815260200190600190039081620013d25790505b509050600080905060008090505b8451811015620016e05760008582815181106200141757fe5b602002602001015190508773ffffffffffffffffffffffffffffffffffffffff168173ffffffffffffffffffffffffffffffffffffffff1663054f733b6040518163ffffffff1660e01b815260040160206040518083038186803b1580156200147f57600080fd5b505afa15801562001494573d6000803e3d6000fd5b505050506040513d601f19601f82011682018060405250620014ba919081019062002038565b73ffffffffffffffffffffffffffffffffffffffff161415620016d15760608173ffffffffffffffffffffffffffffffffffffffff1663328c45d46040518163ffffffff1660e01b815260040160006040518083038186803b1580156200152057600080fd5b505afa15801562001535573d6000803e3d6000fd5b505050506040513d6000823e3d601f19601f82011682018060405250620015609190810190620022e2565b905060008273ffffffffffffffffffffffffffffffffffffffff1663c047e5636040518163ffffffff1660e01b815260040160206040518083038186803b158015620015ab57600080fd5b505afa158015620015c0573d6000803e3d6000fd5b505050506040513d601f19601f82011682018060405250620015e6919081019062002353565b905060008373ffffffffffffffffffffffffffffffffffffffff1663054f733b6040518163ffffffff1660e01b815260040160206040518083038186803b1580156200163157600080fd5b505afa15801562001646573d6000803e3d6000fd5b505050506040513d601f19601f820116820180604052506200166c919081019062002038565b90506200167862001ea2565b60405180606001604052808581526020018481526020018373ffffffffffffffffffffffffffffffffffffffff16815250905080888881518110620016b957fe5b60200260200101819052508680600101975050505050505b508080600101915050620013fe565b5081945050505050919050565b6000819050600073ffffffffffffffffffffffffffffffffffffffff168173ffffffffffffffffffffffffffffffffffffffff16141562001765576040517f08c379a00000000000000000000000000000000000000000000000000000000081526004016200175c9062002cbf565b60405180910390fd5b8073ffffffffffffffffffffffffffffffffffffffff166369d812556040518163ffffffff1660e01b815260040160206040518083038186803b158015620017ac57600080fd5b505afa158015620017c1573d6000803e3d6000fd5b505050506040513d601f19601f82011682018060405250620017e7919081019062002064565b73ffffffffffffffffffffffffffffffffffffffff163373ffffffffffffffffffffffffffffffffffffffff161462001857576040517f08c379a00000000000000000000000000000000000000000000000000000000081526004016200184e9062002dad565b60405180910390fd5b8073ffffffffffffffffffffffffffffffffffffffff16638235b284336040518263ffffffff1660e01b81526004016200189291906200295d565b600060405180830381600087803b158015620018ad57600080fd5b505af1158015620018c2573d6000803e3d6000fd5b5050505060608173ffffffffffffffffffffffffffffffffffffffff1663328c45d46040518163ffffffff1660e01b815260040160006040518083038186803b1580156200190f57600080fd5b505afa15801562001924573d6000803e3d6000fd5b505050506040513d6000823e3d601f19601f820116820180604052506200194f9190810190620022e2565b90507f3a732cbede85850043b18e368e577b768a04b3dd6ec6a40d0bfd07c81d20c20e833383604051620019869392919062002a2d565b60405180910390a1505050565b6000819050600073ffffffffffffffffffffffffffffffffffffffff168173ffffffffffffffffffffffffffffffffffffffff16141562001a0b576040517f08c379a000000000000000000000000000000000000000000000000000000000815260040162001a029062002cbf565b60405180910390fd5b8073ffffffffffffffffffffffffffffffffffffffff16637ba61ea56040518163ffffffff1660e01b815260040160206040518083038186803b15801562001a5257600080fd5b505afa15801562001a67573d6000803e3d6000fd5b505050506040513d601f19601f8201168201806040525062001a8d919081019062002064565b73ffffffffffffffffffffffffffffffffffffffff163373ffffffffffffffffffffffffffffffffffffffff161462001afd576040517f08c379a000000000000000000000000000000000000000000000000000000000815260040162001af49062002ce1565b60405180910390fd5b8073ffffffffffffffffffffffffffffffffffffffff1663190ef1e634336040518363ffffffff1660e01b815260040162001b3991906200295d565b6000604051808303818588803b15801562001b5357600080fd5b505af115801562001b68573d6000803e3d6000fd5b50505050507ffe3c4f4ff6f11a42f9d84f777002ab405a07fc0075a3504d153b0587f61f460e82333460405162001ba29392919062002a71565b60405180910390a15050565b60035481565b60055481565b6060600080600073ffffffffffffffffffffffffffffffffffffffff168473ffffffffffffffffffffffffffffffffffffffff16141562001c32576040517f08c379a000000000000000000000000000000000000000000000000000000000815260040162001c299062002d47565b60405180910390fd5b60008490508073ffffffffffffffffffffffffffffffffffffffff1663328c45d46040518163ffffffff1660e01b815260040160006040518083038186803b15801562001c7e57600080fd5b505afa15801562001c93573d6000803e3d6000fd5b505050506040513d6000823e3d601f19601f8201168201806040525062001cbe9190810190620022e2565b8173ffffffffffffffffffffffffffffffffffffffff1663c047e5636040518163ffffffff1660e01b815260040160206040518083038186803b15801562001d0557600080fd5b505afa15801562001d1a573d6000803e3d6000fd5b505050506040513d601f19601f8201168201806040525062001d40919081019062002353565b8273ffffffffffffffffffffffffffffffffffffffff1663054f733b6040518163ffffffff1660e01b815260040160206040518083038186803b15801562001d8757600080fd5b505afa15801562001d9c573d6000803e3d6000fd5b505050506040513d601f19601f8201168201806040525062001dc2919081019062002038565b935093509350509193909250565b6002602052816000526040600020818154811062001dea57fe5b906000526020600020016000915091509054906101000a900473ffffffffffffffffffffffffffffffffffffffff1681565b60046020528060005260406000206000915054906101000a900473ffffffffffffffffffffffffffffffffffffffff1681565b61067d806200304a83390190565b61199880620036c783390190565b60405180606001604052806060815260200160008152602001600073ffffffffffffffffffffffffffffffffffffffff1681525090565b60405180606001604052806060815260200160008152602001600073ffffffffffffffffffffffffffffffffffffffff1681525090565b60008135905062001eea8162002fe1565b92915050565b60008151905062001f018162002fe1565b92915050565b60008151905062001f188162002ffb565b92915050565b60008151905062001f2f8162003015565b92915050565b60008083601f84011262001f4857600080fd5b8235905067ffffffffffffffff81111562001f6257600080fd5b60208301915083600182028301111562001f7b57600080fd5b9250929050565b600082601f83011262001f9457600080fd5b815162001fab62001fa58262002e1a565b62002dec565b9150808252602083016020830185838301111562001fc857600080fd5b62001fd583828462002f9a565b50505092915050565b60008135905062001fef816200302f565b92915050565b60008151905062002006816200302f565b92915050565b6000602082840312156200201f57600080fd5b60006200202f8482850162001ed9565b91505092915050565b6000602082840312156200204b57600080fd5b60006200205b8482850162001ef0565b91505092915050565b6000602082840312156200207757600080fd5b6000620020878482850162001f07565b91505092915050565b6000806000806000806000806000806101408b8d031215620020b157600080fd5b6000620020c18d828e0162001ef0565b9a50506020620020d48d828e0162001ef0565b9950506040620020e78d828e0162001ef0565b9850506060620020fa8d828e0162001ef0565b97505060806200210d8d828e0162001ff5565b96505060a0620021208d828e0162001ff5565b95505060c0620021338d828e0162001ff5565b94505060e0620021468d828e0162001ff5565b9350506101006200215a8d828e0162001f1e565b9250506101206200216e8d828e0162001f1e565b9150509295989b9194979a5092959850565b600080600080608085870312156200219757600080fd5b6000620021a78782880162001ef0565b9450506020620021ba8782880162001ef0565b9350506040620021cd8782880162001ff5565b9250506060620021e08782880162001ff5565b91505092959194509250565b600080604083850312156200220057600080fd5b6000620022108582860162001ed9565b9250506020620022238582860162001fde565b9150509250929050565b600080600080600080600060c0888a0312156200224957600080fd5b6000620022598a828b0162001ed9565b97505060206200226c8a828b0162001fde565b96505060406200227f8a828b0162001fde565b9550506060620022928a828b0162001fde565b945050608088013567ffffffffffffffff811115620022b057600080fd5b620022be8a828b0162001f35565b935093505060a0620022d38a828b0162001fde565b91505092959891949750929550565b600060208284031215620022f557600080fd5b600082015167ffffffffffffffff8111156200231057600080fd5b6200231e8482850162001f82565b91505092915050565b6000602082840312156200233a57600080fd5b60006200234a8482850162001fde565b91505092915050565b6000602082840312156200236657600080fd5b6000620023768482850162001ff5565b91505092915050565b60006200238d8383620023c0565b60208301905092915050565b6000620023a78383620028c8565b905092915050565b620023ba8162002f4f565b82525050565b620023cb8162002ef1565b82525050565b620023dc8162002ef1565b82525050565b6000620023ef8262002e67565b620023fb818562002ead565b9350620024088362002e47565b8060005b838110156200243f5781516200242388826200237f565b9750620024308362002e93565b9250506001810190506200240c565b5085935050505092915050565b6000620024598262002e72565b62002465818562002ebe565b935083602082028501620024798562002e57565b8060005b85811015620024bb578484038952815162002499858262002399565b9450620024a68362002ea0565b925060208a019950506001810190506200247d565b50829750879550505050505092915050565b620024d88162002f19565b82525050565b6000620024ec838562002ee0565b9350620024fb83858462002f8b565b620025068362002fd0565b840190509392505050565b60006200251e8262002e88565b6200252a818562002ee0565b93506200253c81856020860162002f9a565b620025478162002fd0565b840191505092915050565b60006200255f8262002e7d565b6200256b818562002ecf565b93506200257d81856020860162002f9a565b620025888162002fd0565b840191505092915050565b6000620025a08262002e7d565b620025ac818562002ee0565b9350620025be81856020860162002f9a565b620025c98162002fd0565b840191505092915050565b6000620025e360268362002ee0565b91507f4c4d433a20426f72726f77696e6720436f6e747261637420646f6573206e6f7460008301527f20657869737400000000000000000000000000000000000000000000000000006020830152604082019050919050565b60006200264b60258362002ee0565b91507f4c4d433a204f6e6c7920626f72726f7765722063616e2072657061792074686560008301527f206c6f616e0000000000000000000000000000000000000000000000000000006020830152604082019050919050565b6000620026b360308362002ee0565b91507f4c4d433a20436f6c6c61746572616c206d75737420626520637265617465722060008301527f7468616e206c6f616e20616d6f756e74000000000000000000000000000000006020830152604082019050919050565b60006200271b60238362002ee0565b91507f4c4d433a204c656e64696e6720636f6e747261637420646f65736e277420657860008301527f69737400000000000000000000000000000000000000000000000000000000006020830152604082019050919050565b60006200278360258362002ee0565b91507f4c4d433a20426f72726f77696e6720636f6e747261637420646f65736e27742060008301527f65786973740000000000000000000000000000000000000000000000000000006020830152604082019050919050565b6000620027eb60208362002ee0565b91507f4c4d433a2050726f647563742063616e6e6f742068617665206e6f206e616d656000830152602082019050919050565b60006200282d60178362002ee0565b91507f4c4d433a20496e73756666696369656e742066756e64730000000000000000006000830152602082019050919050565b60006200286f60328362002ee0565b91507f4c4d433a204f6e6c79206c656e6465722063616e20636c61696d656420626f7260008301527f726f776572277320636f6c6c61746572616c00000000000000000000000000006020830152604082019050919050565b60006060830160008301518482036000860152620028e7828262002552565b9150506020830151620028fe60208601826200291e565b506040830151620029136040860182620023c0565b508091505092915050565b620029298162002f45565b82525050565b6200293a8162002f45565b82525050565b6000602082019050620029576000830184620023d1565b92915050565b6000602082019050620029746000830184620023af565b92915050565b6000604082019050620029916000830185620023af565b620029a060208301846200292f565b9392505050565b600060e082019050620029be600083018b620023af565b620029cd602083018a6200292f565b620029dc60408301896200292f565b620029eb60608301886200292f565b620029fa6080830187620023d1565b81810360a083015262002a0f818587620024de565b905062002a2060c08301846200292f565b9998505050505050505050565b600060608201905062002a446000830186620023d1565b62002a536020830185620023af565b818103604083015262002a67818462002511565b9050949350505050565b600060608201905062002a886000830186620023d1565b62002a976020830185620023af565b62002aa660408301846200292f565b949350505050565b60006101408201905062002ac6600083018d620023d1565b62002ad5602083018c620023d1565b62002ae4604083018b620023d1565b62002af3606083018a620023d1565b62002b0260808301896200292f565b62002b1160a08301886200292f565b62002b2060c08301876200292f565b62002b2f60e08301866200292f565b62002b3f610100830185620024cd565b62002b4f610120830184620024cd565b9b9a5050505050505050505050565b600060a08201905062002b756000830188620023d1565b62002b846020830187620023d1565b62002b9360408301866200292f565b818103606083015262002ba7818562002511565b905062002bb860808301846200292f565b9695505050505050565b600060808201905062002bd96000830187620023d1565b62002be86020830186620023d1565b62002bf760408301856200292f565b62002c0660608301846200292f565b95945050505050565b6000602082019050818103600083015262002c2b8184620023e2565b905092915050565b6000602082019050818103600083015262002c4f81846200244c565b905092915050565b6000602082019050818103600083015262002c73818462002593565b905092915050565b6000606082019050818103600083015262002c97818662002511565b905062002ca860208301856200292f565b62002cb76040830184620023d1565b949350505050565b6000602082019050818103600083015262002cda81620025d4565b9050919050565b6000602082019050818103600083015262002cfc816200263c565b9050919050565b6000602082019050818103600083015262002d1e81620026a4565b9050919050565b6000602082019050818103600083015262002d40816200270c565b9050919050565b6000602082019050818103600083015262002d628162002774565b9050919050565b6000602082019050818103600083015262002d8481620027dc565b9050919050565b6000602082019050818103600083015262002da6816200281e565b9050919050565b6000602082019050818103600083015262002dc88162002860565b9050919050565b600060208201905062002de660008301846200292f565b92915050565b6000604051905081810181811067ffffffffffffffff8211171562002e1057600080fd5b8060405250919050565b600067ffffffffffffffff82111562002e3257600080fd5b601f19601f8301169050602081019050919050565b6000819050602082019050919050565b6000819050602082019050919050565b600081519050919050565b600081519050919050565b600081519050919050565b600081519050919050565b6000602082019050919050565b6000602082019050919050565b600082825260208201905092915050565b600082825260208201905092915050565b600082825260208201905092915050565b600082825260208201905092915050565b600062002efe8262002f25565b9050919050565b600062002f128262002f25565b9050919050565b60008115159050919050565b600073ffffffffffffffffffffffffffffffffffffffff82169050919050565b6000819050919050565b600062002f5c8262002f63565b9050919050565b600062002f708262002f77565b9050919050565b600062002f848262002f25565b9050919050565b82818337600083830152505050565b60005b8381101562002fba57808201518184015260208101905062002f9d565b8381111562002fca576000848401525b50505050565b6000601f19601f8301169050919050565b62002fec8162002ef1565b811462002ff857600080fd5b50565b620030068162002f05565b81146200301257600080fd5b50565b620030208162002f19565b81146200302c57600080fd5b50565b6200303a8162002f45565b81146200304657600080fd5b5056fe608060405260405161067d38038061067d8339818101604052602081101561002657600080fd5b8101908080519060200190929190505050806000806101000a81548173ffffffffffffffffffffffffffffffffffffffff021916908373ffffffffffffffffffffffffffffffffffffffff1602179055503460038190555034600481905550600060058190555033600260006101000a81548173ffffffffffffffffffffffffffffffffffffffff021916908373ffffffffffffffffffffffffffffffffffffffff16021790555030600160006101000a81548173ffffffffffffffffffffffffffffffffffffffff021916908373ffffffffffffffffffffffffffffffffffffffff1602179055505061055e8061011f6000396000f3fe608060405234801561001057600080fd5b50600436106100885760003560e01c80637379dbe61161005b5780637379dbe6146101ce5780637f9af6cb14610218578063968ed60014610262578063d463eeb31461028057610088565b80634051ddac1461008d57806346fcff4c146101185780634b04fc921461013657806369d8125514610184575b600080fd5b61009561029e565b604051808573ffffffffffffffffffffffffffffffffffffffff1673ffffffffffffffffffffffffffffffffffffffff1681526020018473ffffffffffffffffffffffffffffffffffffffff1673ffffffffffffffffffffffffffffffffffffffff16815260200183815260200182815260200194505050505060405180910390f35b6101206102fd565b6040518082815260200191505060405180910390f35b6101826004803603604081101561014c57600080fd5b81019080803573ffffffffffffffffffffffffffffffffffffffff16906020019092919080359060200190929190505050610303565b005b61018c6104ac565b604051808273ffffffffffffffffffffffffffffffffffffffff1673ffffffffffffffffffffffffffffffffffffffff16815260200191505060405180910390f35b6101d66104d1565b604051808273ffffffffffffffffffffffffffffffffffffffff1673ffffffffffffffffffffffffffffffffffffffff16815260200191505060405180910390f35b6102206104f7565b604051808273ffffffffffffffffffffffffffffffffffffffff1673ffffffffffffffffffffffffffffffffffffffff16815260200191505060405180910390f35b61026a61051d565b6040518082815260200191505060405180910390f35b610288610523565b6040518082815260200191505060405180910390f35b6000806000806000809054906101000a900473ffffffffffffffffffffffffffffffffffffffff16600160009054906101000a900473ffffffffffffffffffffffffffffffffffffffff16600354600454935093509350935090919293565b60045481565b600260009054906101000a900473ffffffffffffffffffffffffffffffffffffffff1673ffffffffffffffffffffffffffffffffffffffff163373ffffffffffffffffffffffffffffffffffffffff16146103c6576040517f08c379a000000000000000000000000000000000000000000000000000000000815260040180806020018281038252601e8152602001807f504c433a20556e617574686f72697a6564204c6f616e204d616e61676572000081525060200191505060405180910390fd5b60045481111561043e576040517f08c379a000000000000000000000000000000000000000000000000000000000815260040180806020018281038252601f8152602001807f504c433a204e6f7420656e6f75676820617661696c61626c652066756e64730081525060200191505060405180910390fd5b806004540360048190555060008290508073ffffffffffffffffffffffffffffffffffffffff166108fc839081150290604051600060405180830381858888f19350505050158015610494573d6000803e3d6000fd5b50600560008154809291906001019190505550505050565b6000809054906101000a900473ffffffffffffffffffffffffffffffffffffffff1681565b600160009054906101000a900473ffffffffffffffffffffffffffffffffffffffff1681565b600260009054906101000a900473ffffffffffffffffffffffffffffffffffffffff1681565b60035481565b6005548156fea265627a7a72315820cdb1ecf37c06a0c277e47f192e8bc0f3e4f487cde9672e49276a93f7a34dcff364736f6c6343000510003260806040523480156200001157600080fd5b506040516200199838038062001998833981810160405260e08110156200003757600080fd5b810190808051906020019092919080519060200190929190805190602001909291908051906020019092919080519060200190929190805160405193929190846401000000008211156200008a57600080fd5b83820191506020820185811115620000a157600080fd5b8251866001820283011164010000000082111715620000bf57600080fd5b8083526020830192505050908051906020019080838360005b83811015620000f5578082015181840152602081019050620000d8565b50505050905090810190601f168015620001235780820380516001836020036101000a031916815260200191505b5060405260200180519060200190929190505050866000806101000a81548173ffffffffffffffffffffffffffffffffffffffff021916908373ffffffffffffffffffffffffffffffffffffffff16021790555030600260006101000a81548173ffffffffffffffffffffffffffffffffffffffff021916908373ffffffffffffffffffffffffffffffffffffffff16021790555033600460006101000a81548173ffffffffffffffffffffffffffffffffffffffff021916908373ffffffffffffffffffffffffffffffffffffffff16021790555082600360006101000a81548173ffffffffffffffffffffffffffffffffffffffff021916908373ffffffffffffffffffffffffffffffffffffffff1602179055508560058190555062000252856200038f60201b60201c565b600681905550606460065460055402816200026957fe5b046005540160078190555062000285846200043460201b60201c565b6008819055506000600960006101000a81548160ff0219169083151502179055506000600960016101000a81548160ff02191690831515021790555060405180606001604052808381526020018281526020018873ffffffffffffffffffffffffffffffffffffffff16815250600a600082015181600001908051906020019062000312929190620004ce565b506020820151816001015560408201518160020160006101000a81548173ffffffffffffffffffffffffffffffffffffffff021916908373ffffffffffffffffffffffffffffffffffffffff1602179055509050506000600d60006101000a81548160ff021916908315150217905550505050505050506200057d565b60006019821480620003a15750603282145b80620003ad5750604682145b62000404576040517f08c379a000000000000000000000000000000000000000000000000000000000815260040180806020018281038252602a8152602001806200196e602a913960400191505060405180910390fd5b601982146200042757603282146200041e57600c62000421565b60095b6200042a565b60055b60ff169050919050565b600080821480620004455750601e82145b8062000452575061016d82145b620004a9576040517f08c379a000000000000000000000000000000000000000000000000000000000815260040180806020018281038252602c81526020018062001942602c913960400191505060405180910390fd5b60008214620004c0576201518082024201620004c7565b62278d0042035b9050919050565b828054600181600116156101000203166002900490600052602060002090601f016020900481019282601f106200051157805160ff191683800117855562000542565b8280016001018555821562000542579182015b828111156200054157825182559160200191906001019062000524565b5b50905062000551919062000555565b5090565b6200057a91905b80821115620005765760008160009055506001016200055c565b5090565b90565b6113b5806200058d6000396000f3fe60806040526004361061011f5760003560e01c80637ba61ea5116100a05780639d585f7f116100645780639d585f7f1461067a578063c047e563146106a5578063c43b997e146106d0578063d8dfeb45146106ff578063f85a0e58146107c95761011f565b80637ba61ea5146105215780637c3a00fd146105785780637c654303146105a35780637f9af6cb146105d25780638235b284146106295761011f565b80636164051a116100e75780636164051a146103c257806367ae2bd2146103f157806369d81255146104485780637379dbe61461049f578063786716fe146104f65761011f565b8063054f733b14610124578063190ef1e61461017b578063328c45d4146101bf5780634051ddac1461024f57806346e368d414610371575b600080fd5b34801561013057600080fd5b506101396107f4565b604051808273ffffffffffffffffffffffffffffffffffffffff1673ffffffffffffffffffffffffffffffffffffffff16815260200191505060405180910390f35b6101bd6004803603602081101561019157600080fd5b81019080803573ffffffffffffffffffffffffffffffffffffffff169060200190929190505050610821565b005b3480156101cb57600080fd5b506101d4610b64565b6040518080602001828103825283818151815260200191508051906020019080838360005b838110156102145780820151818401526020810190506101f9565b50505050905090810190601f1680156102415780820380516001836020036101000a031916815260200191505b509250505060405180910390f35b34801561025b57600080fd5b50610264610c09565b604051808b73ffffffffffffffffffffffffffffffffffffffff1673ffffffffffffffffffffffffffffffffffffffff1681526020018a73ffffffffffffffffffffffffffffffffffffffff1673ffffffffffffffffffffffffffffffffffffffff1681526020018973ffffffffffffffffffffffffffffffffffffffff1673ffffffffffffffffffffffffffffffffffffffff1681526020018873ffffffffffffffffffffffffffffffffffffffff1673ffffffffffffffffffffffffffffffffffffffff16815260200187815260200186815260200185815260200184815260200183151515158152602001821515151581526020019a505050505050505050505060405180910390f35b34801561037d57600080fd5b506103c06004803603602081101561039457600080fd5b81019080803573ffffffffffffffffffffffffffffffffffffffff169060200190929190505050610cf5565b005b3480156103ce57600080fd5b506103d7610ea1565b604051808215151515815260200191505060405180910390f35b3480156103fd57600080fd5b50610406610eb4565b604051808273ffffffffffffffffffffffffffffffffffffffff1673ffffffffffffffffffffffffffffffffffffffff16815260200191505060405180910390f35b34801561045457600080fd5b5061045d610eda565b604051808273ffffffffffffffffffffffffffffffffffffffff1673ffffffffffffffffffffffffffffffffffffffff16815260200191505060405180910390f35b3480156104ab57600080fd5b506104b4610f00565b604051808273ffffffffffffffffffffffffffffffffffffffff1673ffffffffffffffffffffffffffffffffffffffff16815260200191505060405180910390f35b34801561050257600080fd5b5061050b610f26565b6040518082815260200191505060405180910390f35b34801561052d57600080fd5b50610536610f2c565b604051808273ffffffffffffffffffffffffffffffffffffffff1673ffffffffffffffffffffffffffffffffffffffff16815260200191505060405180910390f35b34801561058457600080fd5b5061058d610f51565b6040518082815260200191505060405180910390f35b3480156105af57600080fd5b506105b8610f57565b604051808215151515815260200191505060405180910390f35b3480156105de57600080fd5b506105e7610f6a565b604051808273ffffffffffffffffffffffffffffffffffffffff1673ffffffffffffffffffffffffffffffffffffffff16815260200191505060405180910390f35b34801561063557600080fd5b506106786004803603602081101561064c57600080fd5b81019080803573ffffffffffffffffffffffffffffffffffffffff169060200190929190505050610f90565b005b34801561068657600080fd5b5061068f611197565b6040518082815260200191505060405180910390f35b3480156106b157600080fd5b506106ba61119d565b6040518082815260200191505060405180910390f35b3480156106dc57600080fd5b506106e56111aa565b604051808215151515815260200191505060405180910390f35b34801561070b57600080fd5b506107146111bd565b60405180806020018481526020018373ffffffffffffffffffffffffffffffffffffffff1673ffffffffffffffffffffffffffffffffffffffff168152602001828103825285818151815260200191508051906020019080838360005b8381101561078c578082015181840152602081019050610771565b50505050905090810190601f1680156107b95780820380516001836020036101000a031916815260200191505b5094505050505060405180910390f35b3480156107d557600080fd5b506107de61128d565b6040518082815260200191505060405180910390f35b6000600a60020160009054906101000a900473ffffffffffffffffffffffffffffffffffffffff16905090565b600460009054906101000a900473ffffffffffffffffffffffffffffffffffffffff1673ffffffffffffffffffffffffffffffffffffffff163373ffffffffffffffffffffffffffffffffffffffff16146108c7576040517f08c379a000000000000000000000000000000000000000000000000000000000815260040180806020018281038252603281526020018061134f6032913960400191505060405180910390fd5b6000809054906101000a900473ffffffffffffffffffffffffffffffffffffffff1673ffffffffffffffffffffffffffffffffffffffff168173ffffffffffffffffffffffffffffffffffffffff1614610989576040517f08c379a00000000000000000000000000000000000000000000000000000000081526004018080602001828103825260208152602001807f42433a204f6e6c7920626f72726f7765722063616e207265706179206c6f616e81525060200191505060405180910390fd5b6007543414610a00576040517f08c379a000000000000000000000000000000000000000000000000000000000815260040180806020018281038252601c8152602001807f42433a20496e636f72726563742066756e64696e6720616d6f756e740000000081525060200191505060405180910390fd5b600960009054906101000a900460ff16610a82576040517f08c379a00000000000000000000000000000000000000000000000000000000081526004018080602001828103825260168152602001807f42433a204c6f616e206973206e6f742066756e6465640000000000000000000081525060200191505060405180910390fd5b600854421115610add576040517f08c379a00000000000000000000000000000000000000000000000000000000081526004018080602001828103825260218152602001806112d66021913960400191505060405180910390fd5b600160009054906101000a900473ffffffffffffffffffffffffffffffffffffffff1673ffffffffffffffffffffffffffffffffffffffff166108fc349081150290604051600060405180830381858888f19350505050158015610b45573d6000803e3d6000fd5b506001600960016101000a81548160ff02191690831515021790555050565b6060600a6000018054600181600116156101000203166002900480601f016020809104026020016040519081016040528092919081815260200182805460018160011615610100020316600290048015610bff5780601f10610bd457610100808354040283529160200191610bff565b820191906000526020600020905b815481529060010190602001808311610be257829003601f168201915b5050505050905090565b6000806000806000806000806000806000809054906101000a900473ffffffffffffffffffffffffffffffffffffffff16600160009054906101000a900473ffffffffffffffffffffffffffffffffffffffff16600260009054906101000a900473ffffffffffffffffffffffffffffffffffffffff16600360009054906101000a900473ffffffffffffffffffffffffffffffffffffffff16600554600654600854600754600960009054906101000a900460ff16600960019054906101000a900460ff16899950889850995099509950995099509950995099509950995090919293949596979899565b6000809054906101000a900473ffffffffffffffffffffffffffffffffffffffff1673ffffffffffffffffffffffffffffffffffffffff168173ffffffffffffffffffffffffffffffffffffffff161415610d9b576040517f08c379a00000000000000000000000000000000000000000000000000000000081526004018080602001828103825260218152602001806112946021913960400191505060405180910390fd5b600073ffffffffffffffffffffffffffffffffffffffff16600160009054906101000a900473ffffffffffffffffffffffffffffffffffffffff1673ffffffffffffffffffffffffffffffffffffffff1614610e42576040517f08c379a00000000000000000000000000000000000000000000000000000000081526004018080602001828103825260348152602001806112f76034913960400191505060405180910390fd5b80600160006101000a81548173ffffffffffffffffffffffffffffffffffffffff021916908373ffffffffffffffffffffffffffffffffffffffff1602179055506001600960006101000a81548160ff02191690831515021790555050565b600960019054906101000a900460ff1681565b600260009054906101000a900473ffffffffffffffffffffffffffffffffffffffff1681565b600160009054906101000a900473ffffffffffffffffffffffffffffffffffffffff1681565b600360009054906101000a900473ffffffffffffffffffffffffffffffffffffffff1681565b60085481565b6000809054906101000a900473ffffffffffffffffffffffffffffffffffffffff1681565b60065481565b600960009054906101000a900460ff1681565b600460009054906101000a900473ffffffffffffffffffffffffffffffffffffffff1681565b8073ffffffffffffffffffffffffffffffffffffffff16600160009054906101000a900473ffffffffffffffffffffffffffffffffffffffff1673ffffffffffffffffffffffffffffffffffffffff1614611036576040517f08c379a000000000000000000000000000000000000000000000000000000000815260040180806020018281038252602481526020018061132b6024913960400191505060405180910390fd5b600960019054906101000a900460ff16156110b9576040517f08c379a000000000000000000000000000000000000000000000000000000000815260040180806020018281038252601a8152602001807f42433a204c6f616e20697320616c72656164792072657061696400000000000081525060200191505060405180910390fd5b6008544211611113576040517f08c379a00000000000000000000000000000000000000000000000000000000081526004018080602001828103825260218152602001806112b56021913960400191505060405180910390fd5b600160009054906101000a900473ffffffffffffffffffffffffffffffffffffffff16600a60020160006101000a81548173ffffffffffffffffffffffffffffffffffffffff021916908373ffffffffffffffffffffffffffffffffffffffff1602179055506001600d60006101000a81548160ff02191690831515021790555050565b60055481565b6000600a60010154905090565b600d60009054906101000a900460ff1681565b600a806000018054600181600116156101000203166002900480601f0160208091040260200160405190810160405280929190818152602001828054600181600116156101000203166002900480156112575780601f1061122c57610100808354040283529160200191611257565b820191906000526020600020905b81548152906001019060200180831161123a57829003601f168201915b5050505050908060010154908060020160009054906101000a900473ffffffffffffffffffffffffffffffffffffffff16905083565b6007548156fe42433a20426f72726f7765722063616e6e6f7420626520746865206c656e64657242433a204c6f616e207465726d20686173206e6f7420657870697265642079657442433a204c6f616e207465726d2068617320616c7265616479206578706972656442433a204c656e64657220616c7265616479207365742c2063616e6e6f74206368616e6765206c656e646572206164647265737342433a204f6e6c79206c656e6465722063616e20636c61696d20636f6c6c61746572616c42433a20556e617574686f72697a65642066756e6374696f6e2063616c6c2066726f6d204c6f616e4d616e6167656d656e74a265627a7a72315820e7ea8c1a02d12e2a29f76f144f71975ac7a04f032b12d68f5c1926b997d2f0ff64736f6c6343000510003242433a20496e76616c6964206c6f616e207465726d20286f6e6c7920302c2033302c2033363520646179732942433a20496e76616c6964204c5456206f7074696f6e20286f6e6c792032352c35302c206f7220373029a365627a7a72315820962c4f012b5ff2f054478b446c79e33f32a5d3434e439baa747fff08031d43f96c6578706572696d656e74616cf564736f6c63430005100040",
  "source": "// SPDX-License-Identifier: MIT\r\npragma solidity ^0.5.0;\r\npragma experimental ABIEncoderV2;\r\n\r\nimport \"./BorrowingContract.sol\";\r\nimport \"./PoolLendingContract.sol\";\r\n\r\ncontract LoanManagementContract {\r\n    string public dappName;\r\n\r\n    mapping(address => address[]) public lendingContracts;\r\n    mapping(address => address[]) public borrowingContracts;\r\n\r\n    uint public lendingContractCount = 0;\r\n    mapping(uint => address) public lendingContractAddresses;\r\n    uint public borrowingContractCount = 0;\r\n    mapping(uint => address) public borrowingContractAddresses;\r\n\r\n    struct CollateralProduct {\r\n        string name;\r\n        uint value;\r\n        address owner;\r\n    }\r\n\r\n    constructor() public {\r\n        dappName = \"BigBoy Lending Corp.\";\r\n    }\r\n\r\n    event PoolLendingContractCreated(\r\n        address lendingContractAddress,\r\n        address lender,\r\n        uint totalFunds\r\n    );\r\n\r\n    event BorrowingContractCreated(\r\n        address borrowingContractAddress,\r\n        address borrower,\r\n        uint amount,\r\n        string productName,\r\n        uint productValue\r\n    );\r\n\r\n    event LoanRepaid(\r\n        address borrowingContractAddress,\r\n        address borrower,\r\n        uint amountRepaid\r\n    );\r\n\r\n    event CollateralClaimed(\r\n        address borrowingContractAddress,\r\n        address lender,\r\n        string collateralName\r\n    );\r\n\r\n    function createLendingContract() external payable {\r\n        PoolLendingContract newLendingContract = (new PoolLendingContract)\r\n            .value(msg.value)(msg.sender);\r\n        lendingContracts[msg.sender].push(address(newLendingContract));\r\n\r\n        lendingContractCount++;\r\n        lendingContractAddresses[lendingContractCount] = address(\r\n            newLendingContract\r\n        );\r\n\r\n        emit PoolLendingContractCreated(\r\n            address(newLendingContract),\r\n            msg.sender,\r\n            msg.value\r\n        );\r\n    }\r\n\r\n    function createBorrowingContract(\r\n        address _lendingContractAddress,\r\n        uint _amount,\r\n        uint _interestRate,\r\n        uint _dueDate,\r\n        string calldata _productName,\r\n        uint _productValue\r\n    ) external {\r\n        PoolLendingContract lendingContract = PoolLendingContract(\r\n            _lendingContractAddress\r\n        );\r\n        require(\r\n            _amount <= lendingContract.availableFunds(),\r\n            \"LMC: Insufficient funds\"\r\n        );\r\n        require(\r\n            bytes(_productName).length > 0,\r\n            \"LMC: Product cannot have no name\"\r\n        );\r\n        require(\r\n            _productValue > _amount,\r\n            \"LMC: Collateral must be creater than loan amount\"\r\n        );\r\n\r\n        BorrowingContract newBorrowingContract = new BorrowingContract(\r\n            msg.sender,\r\n            _amount,\r\n            _interestRate,\r\n            _dueDate,\r\n            _lendingContractAddress,\r\n            _productName,\r\n            _productValue\r\n        );\r\n\r\n        borrowingContracts[msg.sender].push(address(newBorrowingContract));\r\n        lendingContract.lendFunds(msg.sender, _amount);\r\n        newBorrowingContract.setLender(lendingContract.lenderAddress());\r\n\r\n        borrowingContractCount++;\r\n        borrowingContractAddresses[borrowingContractCount] = address(\r\n            newBorrowingContract\r\n        );\r\n\r\n        // Retrieve values from the new borrowing contract (for event)\r\n        string memory retrievedProductName = newBorrowingContract\r\n            .getCollateralName();\r\n        uint retrievedProductValue = newBorrowingContract.getCollateralValue();\r\n        address retrievedBorrower = newBorrowingContract.borrowerAddress();\r\n        uint retrievedLoanAmount = newBorrowingContract.loanAmount();\r\n\r\n        emit BorrowingContractCreated(\r\n            address(newBorrowingContract),\r\n            retrievedBorrower,\r\n            retrievedLoanAmount,\r\n            retrievedProductName,\r\n            retrievedProductValue\r\n        );\r\n    }\r\n\r\n    function borrowerRepayLoan(\r\n        address _borrowingContractAddress\r\n    ) external payable {\r\n        BorrowingContract borrowingContract = BorrowingContract(\r\n            _borrowingContractAddress\r\n        );\r\n        require(\r\n            address(borrowingContract) != address(0),\r\n            \"LMC: Borrowing Contract does not exist\"\r\n        );\r\n        require(\r\n            msg.sender == borrowingContract.borrowerAddress(),\r\n            \"LMC: Only borrower can repay the loan\"\r\n        );\r\n\r\n        borrowingContract.repayLoan.value(msg.value)(msg.sender);\r\n\r\n        emit LoanRepaid(_borrowingContractAddress, msg.sender, msg.value);\r\n    }\r\n\r\n    function lenderClaimCollateralFromLoan(\r\n        address _borrowingContractAddress\r\n    ) external {\r\n        BorrowingContract borrowingContract = BorrowingContract(\r\n            _borrowingContractAddress\r\n        );\r\n        require(\r\n            address(borrowingContract) != address(0),\r\n            \"LMC: Borrowing Contract does not exist\"\r\n        );\r\n        require(\r\n            msg.sender == borrowingContract.lenderAddress(),\r\n            \"LMC: Only lender can claimed borrower's collateral\"\r\n        );\r\n\r\n        borrowingContract.claimCollateral(msg.sender);\r\n\r\n        string memory collateralName = borrowingContract.getCollateralName();\r\n        emit CollateralClaimed(\r\n            _borrowingContractAddress,\r\n            msg.sender,\r\n            collateralName\r\n        );\r\n    }\r\n\r\n    function getLendingContractsByLender(\r\n        address _lenderAddress\r\n    ) external view returns (address[] memory) {\r\n        return lendingContracts[_lenderAddress];\r\n    }\r\n\r\n    function getBorrowingContractByBorrwer(\r\n        address _borrowerAddress\r\n    ) external view returns (address[] memory) {\r\n        return borrowingContracts[_borrowerAddress];\r\n    }\r\n\r\n    function lendingContractSumamry(\r\n        address _lendingContractAddress\r\n    )\r\n        external\r\n        view\r\n        returns (\r\n            address _lender,\r\n            address _lendingContractAddressFromSelf,\r\n            uint _totalFunds,\r\n            uint _availableFunds\r\n        )\r\n    {\r\n        require(\r\n            address(PoolLendingContract(_lendingContractAddress)) != address(0),\r\n            \"LMC: Lending contract doesn't exist\"\r\n        );\r\n        PoolLendingContract lendingContract = PoolLendingContract(\r\n            _lendingContractAddress\r\n        );\r\n        return lendingContract.getSummary();\r\n    }\r\n\r\n    function borrowingContractSummary(\r\n        address _borrowingContractAddress\r\n    )\r\n        external\r\n        view\r\n        returns (\r\n            address _borrower,\r\n            address _lender,\r\n            address _borrowingContractAddressFromSelf,\r\n            address _lendingContractAddress,\r\n            uint _amount,\r\n            uint _interestRate,\r\n            uint _dueDate,\r\n            uint _totalRepayableAmount,\r\n            bool _isFunded,\r\n            bool _isRepaid\r\n        )\r\n    {\r\n        require(\r\n            address(BorrowingContract(_borrowingContractAddress)) != address(0),\r\n            \"LMC: Borrowing contract doesn't exist\"\r\n        );\r\n        BorrowingContract borrowingContract = BorrowingContract(\r\n            _borrowingContractAddress\r\n        );\r\n        return borrowingContract.getSummary();\r\n    }\r\n\r\n    function getProductDetailsFromBorrowingContract(\r\n        address _borrowingContractAddress\r\n    ) external view returns (string memory name, uint value, address owner) {\r\n        require(\r\n            address(BorrowingContract(_borrowingContractAddress)) != address(0),\r\n            \"LMC: Borrowing contract doesn't exist\"\r\n        );\r\n\r\n        BorrowingContract borrowingContract = BorrowingContract(\r\n            _borrowingContractAddress\r\n        );\r\n        return (\r\n            borrowingContract.getCollateralName(),\r\n            borrowingContract.getCollateralValue(),\r\n            borrowingContract.getCollateralOwner()\r\n        );\r\n    }\r\n\r\n    function getAllProductsOwnedBy(\r\n        address _owner\r\n    ) external view returns (CollateralProduct[] memory) {\r\n        address[] memory borrowerContracts = borrowingContracts[_owner];\r\n        uint count = 0;\r\n\r\n        for (uint i = 0; i < borrowerContracts.length; i++) {\r\n            BorrowingContract borrowingContract = BorrowingContract(\r\n                borrowerContracts[i]\r\n            );\r\n            if (borrowingContract.getCollateralOwner() == _owner) {\r\n                count++;\r\n            }\r\n        }\r\n\r\n        CollateralProduct[] memory ownedProducts = new CollateralProduct[](\r\n            count\r\n        );\r\n        uint j = 0;\r\n\r\n        for (uint i = 0; i < borrowerContracts.length; i++) {\r\n            BorrowingContract borrowingContract = BorrowingContract(\r\n                borrowerContracts[i]\r\n            );\r\n            if (borrowingContract.getCollateralOwner() == _owner) {\r\n                string memory name = borrowingContract.getCollateralName();\r\n                uint value = borrowingContract.getCollateralValue();\r\n                address owner = borrowingContract.getCollateralOwner();\r\n\r\n                CollateralProduct memory product = CollateralProduct(\r\n                    name,\r\n                    value,\r\n                    owner\r\n                );\r\n                ownedProducts[j] = product;\r\n                j++;\r\n            }\r\n        }\r\n        return ownedProducts;\r\n    }\r\n}\r\n\r\n// Testing:\r\n\r\n// Lending: 10 Ether\r\n\r\n// Borrowing: 1000000000000000000\r\n\r\n// Borrowing: 5000000000000000000\r\n// Collateral: 6000000000000000000\r\n\r\n// Borrowing: 4000000000000000000\r\n",
  "sourcePath": "C:\\Users\\Win\\Desktop\\p2plending_dapps\\src\\contracts\\LoanManagementContract.sol",
  "compiler": {
    "name": "solc",
    "version": "0.5.16+commit.9c3226ce.Emscripten.clang"
  },
  "schemaVersion": "3.4.16",
  "updatedAt": "2023-12-18T03:12:52.275Z",
  "networkType": "ethereum",
  "devdoc": {
    "methods": {}
  },
  "userdoc": {
    "methods": {}
  }
}