{
  "contractName": "PoolLendingContract",
  "abi": [
    {
      "inputs": [
        {
          "internalType": "address",
          "name": "_lenderAddress",
          "type": "address"
        }
      ],
      "payable": true,
      "stateMutability": "payable",
      "type": "constructor"
    },
    {
      "constant": true,
      "inputs": [],
      "name": "availableFunds",
      "outputs": [
        {
          "internalType": "uint256",
          "name": "",
          "type": "uint256"
        }
      ],
      "payable": false,
      "stateMutability": "view",
      "type": "function"
    },
    {
      "constant": true,
      "inputs": [],
      "name": "lenderAddress",
      "outputs": [
        {
          "internalType": "address",
          "name": "",
          "type": "address"
        }
      ],
      "payable": false,
      "stateMutability": "view",
      "type": "function"
    },
    {
      "constant": true,
      "inputs": [],
      "name": "lendingContractAddress",
      "outputs": [
        {
          "internalType": "address",
          "name": "",
          "type": "address"
        }
      ],
      "payable": false,
      "stateMutability": "view",
      "type": "function"
    },
    {
      "constant": true,
      "inputs": [],
      "name": "loanManagementContractAddress",
      "outputs": [
        {
          "internalType": "address",
          "name": "",
          "type": "address"
        }
      ],
      "payable": false,
      "stateMutability": "view",
      "type": "function"
    },
    {
      "constant": true,
      "inputs": [],
      "name": "numLoans",
      "outputs": [
        {
          "internalType": "uint256",
          "name": "",
          "type": "uint256"
        }
      ],
      "payable": false,
      "stateMutability": "view",
      "type": "function"
    },
    {
      "constant": true,
      "inputs": [],
      "name": "totalFunds",
      "outputs": [
        {
          "internalType": "uint256",
          "name": "",
          "type": "uint256"
        }
      ],
      "payable": false,
      "stateMutability": "view",
      "type": "function"
    },
    {
      "constant": false,
      "inputs": [
        {
          "internalType": "address",
          "name": "_borrower",
          "type": "address"
        },
        {
          "internalType": "uint256",
          "name": "_amount",
          "type": "uint256"
        }
      ],
      "name": "lendFunds",
      "outputs": [],
      "payable": false,
      "stateMutability": "nonpayable",
      "type": "function"
    },
    {
      "constant": true,
      "inputs": [],
      "name": "getSummary",
      "outputs": [
        {
          "internalType": "address",
          "name": "_lenderAddress",
          "type": "address"
        },
        {
          "internalType": "address",
          "name": "_lendingContractAddress",
          "type": "address"
        },
        {
          "internalType": "uint256",
          "name": "_totalFunds",
          "type": "uint256"
        },
        {
          "internalType": "uint256",
          "name": "_availableFunds",
          "type": "uint256"
        }
      ],
      "payable": false,
      "stateMutability": "view",
      "type": "function"
    }
  ],
  "bytecode": "0x608060405260405161067d38038061067d8339818101604052602081101561002657600080fd5b8101908080519060200190929190505050806000806101000a81548173ffffffffffffffffffffffffffffffffffffffff021916908373ffffffffffffffffffffffffffffffffffffffff1602179055503460038190555034600481905550600060058190555033600260006101000a81548173ffffffffffffffffffffffffffffffffffffffff021916908373ffffffffffffffffffffffffffffffffffffffff16021790555030600160006101000a81548173ffffffffffffffffffffffffffffffffffffffff021916908373ffffffffffffffffffffffffffffffffffffffff1602179055505061055e8061011f6000396000f3fe608060405234801561001057600080fd5b50600436106100885760003560e01c80637379dbe61161005b5780637379dbe6146101ce5780637f9af6cb14610218578063968ed60014610262578063d463eeb31461028057610088565b80634051ddac1461008d57806346fcff4c146101185780634b04fc921461013657806369d8125514610184575b600080fd5b61009561029e565b604051808573ffffffffffffffffffffffffffffffffffffffff1673ffffffffffffffffffffffffffffffffffffffff1681526020018473ffffffffffffffffffffffffffffffffffffffff1673ffffffffffffffffffffffffffffffffffffffff16815260200183815260200182815260200194505050505060405180910390f35b6101206102fd565b6040518082815260200191505060405180910390f35b6101826004803603604081101561014c57600080fd5b81019080803573ffffffffffffffffffffffffffffffffffffffff16906020019092919080359060200190929190505050610303565b005b61018c6104ac565b604051808273ffffffffffffffffffffffffffffffffffffffff1673ffffffffffffffffffffffffffffffffffffffff16815260200191505060405180910390f35b6101d66104d1565b604051808273ffffffffffffffffffffffffffffffffffffffff1673ffffffffffffffffffffffffffffffffffffffff16815260200191505060405180910390f35b6102206104f7565b604051808273ffffffffffffffffffffffffffffffffffffffff1673ffffffffffffffffffffffffffffffffffffffff16815260200191505060405180910390f35b61026a61051d565b6040518082815260200191505060405180910390f35b610288610523565b6040518082815260200191505060405180910390f35b6000806000806000809054906101000a900473ffffffffffffffffffffffffffffffffffffffff16600160009054906101000a900473ffffffffffffffffffffffffffffffffffffffff16600354600454935093509350935090919293565b60045481565b600260009054906101000a900473ffffffffffffffffffffffffffffffffffffffff1673ffffffffffffffffffffffffffffffffffffffff163373ffffffffffffffffffffffffffffffffffffffff16146103c6576040517f08c379a000000000000000000000000000000000000000000000000000000000815260040180806020018281038252601e8152602001807f504c433a20556e617574686f72697a6564204c6f616e204d616e61676572000081525060200191505060405180910390fd5b60045481111561043e576040517f08c379a000000000000000000000000000000000000000000000000000000000815260040180806020018281038252601f8152602001807f504c433a204e6f7420656e6f75676820617661696c61626c652066756e64730081525060200191505060405180910390fd5b806004540360048190555060008290508073ffffffffffffffffffffffffffffffffffffffff166108fc839081150290604051600060405180830381858888f19350505050158015610494573d6000803e3d6000fd5b50600560008154809291906001019190505550505050565b6000809054906101000a900473ffffffffffffffffffffffffffffffffffffffff1681565b600160009054906101000a900473ffffffffffffffffffffffffffffffffffffffff1681565b600260009054906101000a900473ffffffffffffffffffffffffffffffffffffffff1681565b60035481565b6005548156fea265627a7a72315820cdb1ecf37c06a0c277e47f192e8bc0f3e4f487cde9672e49276a93f7a34dcff364736f6c63430005100032",
  "source": "// SPDX-License-Identifier: MIT\r\npragma solidity ^0.5.0;\r\n\r\ncontract PoolLendingContract {\r\n    address public lenderAddress;\r\n    address public lendingContractAddress;\r\n    address public loanManagementContractAddress;\r\n    uint public totalFunds;\r\n    uint public availableFunds;\r\n    uint public numLoans;\r\n\r\n    constructor(address _lenderAddress) public payable {\r\n        lenderAddress = _lenderAddress;\r\n        totalFunds = msg.value;\r\n        availableFunds = msg.value;\r\n        numLoans = 0;\r\n        loanManagementContractAddress = msg.sender;\r\n        lendingContractAddress = address(this);\r\n    }\r\n\r\n    function lendFunds(address _borrower, uint _amount) external {\r\n        require(\r\n            msg.sender == loanManagementContractAddress,\r\n            \"PLC: Unauthorized Loan Manager\"\r\n        );\r\n        require(_amount <= availableFunds, \"PLC: Not enough available funds\");\r\n\r\n        availableFunds = availableFunds - _amount;\r\n        address payable borrowerPayable = address(uint160(_borrower));\r\n        borrowerPayable.transfer(_amount);\r\n        numLoans++;\r\n    }\r\n\r\n    function getSummary()\r\n        public\r\n        view\r\n        returns (\r\n            address _lenderAddress,\r\n            address _lendingContractAddress,\r\n            uint _totalFunds,\r\n            uint _availableFunds\r\n        )\r\n    {\r\n        return (\r\n            lenderAddress,\r\n            lendingContractAddress,\r\n            totalFunds,\r\n            availableFunds\r\n        );\r\n    }\r\n}\r\n",
  "sourcePath": "C:\\Users\\Win\\Desktop\\p2plending_dapps\\src\\contracts\\PoolLendingContract.sol",
  "compiler": {
    "name": "solc",
    "version": "0.5.16+commit.9c3226ce.Emscripten.clang"
  },
  "schemaVersion": "3.4.16",
  "updatedAt": "2023-12-18T03:12:50.549Z",
  "devdoc": {
    "methods": {}
  },
  "userdoc": {
    "methods": {}
  }
}